:020000001628C0
:0E0006008312031321088A00200882000800DC
:1000140003208A110A128000840AA00A0319A10A83
:08002400F003031D0A28080087
:10002C000730831603139F0085010130831285006E
:10003C00831686018312860183168701831287013A
:10004C00831688018312880183160914891483127C
:10005C00091807298801013085000530A20080307D
:10006C002206F0008030003A7002031C5A28081453
:10007C000811881088118816081285010130A30018
:10008C0001308700220886000B30FB002630FC0074
:10009C005D30FD00FD0B5028FC0B5028FB0B50284D
:1000AC0000000000A20335280930A200803022068F
:1000BC00F0008030013A7002031C8C288501A301EA
:1000CC008701220886000B30FB002630FC005D30D7
:1000DC00FD00FD0B6F28FC0B6F28FB0B6F2800003D
:1000EC0000002208043A031988282208033A03194D
:1000FC0088282208023A031988282208013A031991
:10010C0088288A2888120816A2035C280330A200CB
:10011C0080302206F0008030003A7002031CB328B5
:10012C0008100815881088158812081285010230ED
:10013C00A30002308700220886000B30FB0026301B
:10014C00FC005D30FD00FD0BA928FC0BA928FB0B66
:10015C00A92800000000A2038E280930A2008030DC
:10016C002206F0008030003A7002031CD42885016E
:10017C000130A30001308700220886000B30FB0001
:10018C002630FC005D30FD00FD0BCA28FC0BCA2894
:10019C00FB0BCA2800000000A203B5280930A200FE
:1001AC0080302206F0008030013A7002031C0629D0
:1001BC008501A3018701220886000B30FB00263045
:1001CC00FC005D30FD00FD0BE928FC0BE928FB0B66
:1001DC00E928000000002208043A03190229220829
:1001EC00033A031902292208023A031902292208A8
:1001FC00013A03190229042908118814A203D628EC
:10020C00A029880101308500891C56290810081185
:10021C008814881588120812051085100515851587
:10022C000330860087011530FB004B30FC00BE30DC
:10023C00FD00FD0B1F29FC0B1F29FB0B1F290000C8
:10024C000230860087011530FB004B30FC00BE30BD
:10025C00FD00FD0B2F29FC0B2F29FB0B2F29000078
:10026C000130860087011530FB004B30FC00BE309E
:10027C00FD00FD0B3F29FC0B3F29FB0B3F29000028
:10028C0086018701051485140515851508140811B8
:10029C008810881188160812891C552952299F2903
:1002AC000814081188108811881208160514851472
:1002BC00051185110330860087011530FB004B308A
:1002CC00FC00BE30FD00FD0B6929FC0B6929FB0B02
:1002DC00692900000230860087011530FB004B3085
:1002EC00FC00BE30FD00FD0B7929FC0B7929FB0BC2
:1002FC00792900000130860087011530FB004B3056
:10030C00FC00BE30FD00FD0B8929FC0B8929FB0B81
:10031C0089290000860187010514851405158515AA
:10032C0008100815881088158812081289189F293A
:08033C009C2907292D28A129A5
:02400E004A2F37
:00000001FF
